:100000000C9452000C946F000C946F000C946F00D1
:100010000C946F000C946F000C946F000C946F00A4
:100020000C946F000C946F000C946F000C946F0094
:100030000C946F000C946F000C946F000C946F0084
:100040000C946F000C946F000C9455020C946F008C
:100050000C946F000C94AA000C946F000C946F0029
:100060000C946F000C946F009A019F01A401A901E8
:10007000AE01B301B801BD01C201C701D301D8016E
:10008000DD01E201E701EC01F101F601FB010002F3
:100090000C02110216021B02200225022A022F0264
:1000A0003402390211241FBECFEFD8E0DEBFCDBF2E
:1000B00011E0A0E0B1E0EAE8F5E002C005900D92A1
:1000C000AA3EB107D9F721E0AAEEB1E001C01D9226
:1000D000A23FB207E1F70E94E0000C94C3020C9427
:1000E0000000F8948FEF84B915B88AB18E7F8AB971
:1000F0008AB182608AB91092C000E1ECF0E010820F
:10010000808188698083E2ECF0E0108280818660E3
:10011000808387E690E09093C5008093C4000895A3
:10012000ECE7F0E086E080838081806480838081DA
:100130008F778083808180628083EAE7F0E010829D
:1001400080818860808380818760808380818068EF
:10015000808308951F920F920FB60F9211248F93F0
:100160009F93EF93FF938091790090E09093F1013A
:100170008093F001EAE7F0E0808180618083FF9165
:10018000EF919F918F910F900FBE0F901F90189538
:100190009091C00095FFFCCF8093C6000895AC01FC
:1001A00020E007C09091C00095FFFCCF3093C600BF
:1001B0002F5FFA01E20FF11D30813111F3CF089565
:1001C0008FE384B98AB1806C8AB90E9490000E9442
:1001D00071007894EAE7F0E0808180648083809108
:1001E000ED019091EE01892B71F58AE091E00E947A
:1001F000CF008AE00E94C8008DE00E94C80088E21B
:1002000091E00E94CF008AE00E94C8008DE00E9429
:10021000C8008DE591E00E94CF008AE00E94C800EE
:100220008DE00E94C80085E791E00E94CF008AE03F
:100230000E94C8008DE00E94C80081E090E0909389
:10024000EE018093ED018091EA01882319F28091FB
:10025000EA01813321F0823309F41AC1BBCF87E868
:1002600091E00E94CF0086EB91E00E94CF00809148
:10027000F0019091F101282F2F73082E892F000C87
:10028000881F990B000C881F991F837025B92BB10B
:1002900030E4839FC0011124922F9F73892B8BB967
:1002A0002091F0013091F10108EE13E0C901B8018D
:1002B0000E9495027B0148E15CEF649FC001659F4D
:1002C000900D749F900D1124820F931F64E670E0CF
:1002D0000E949502FB01E09EE001E19ED00DF09EA0
:1002E000D00D112444E6469FC001479F900D112474
:1002F000C80FD91FC9018C1B9D0B6AE070E00E94DA
:1003000095028B01CB01880F991FAB01440F551F3C
:10031000440F551F440F551F840F951F8C0F9D1FB1
:10032000E901C81BD90BEA30F105A8F5EC5CFF4FD9
:100330000C94A902809100010E94C8002CC08091F9
:1003400001010E94C80027C0809102010E94C800DC
:1003500022C0809103010E94C8001DC08091040149
:100360000E94C80018C0809105010E94C80013C0F7
:10037000809106010E94C8000EC0809107010E9472
:10038000C80009C0809108010E94C80004C0809183
:1003900009010E94C8000A301105B0F5F801E25CBD
:1003A000FF4F0C94A902809100010E94C8002CC04C
:1003B000809101010E94C80027C0809102010E9423
:1003C000C80022C0809103010E94C8001DC0809116
:1003D00004010E94C80018C0809105010E94C80055
:1003E00013C0809106010E94C8000EC080910701D1
:1003F0000E94C80009C0809108010E94C80004C082
:10040000809109010E94C800CA30D105B0F5FE01F3
:10041000E85BFF4F0C94A902809100010E94C80084
:100420002CC0809101010E94C80027C08091020168
:100430000E94C80022C0809103010E94C8001DC014
:10044000809104010E94C80018C0809105010E949B
:10045000C80013C0809106010E94C8000EC08091A0
:1004600007010E94C80009C0809108010E94C800CD
:1004700004C0809109010E94C8001092EE01109200
:10048000ED011092EA0187E891E00E94CF00A2CE30
:100490001092EA0185ED91E00E94CF0081E090E0AA
:1004A0009093EC018093EB0195CE1F920F920FB6C3
:1004B0000F9211242F933F938F939F938091C600A7
:1004C0008093EA018091EB019091EC010197E1F4B6
:1004D0002091EA012F738091EA01982F92959695C9
:1004E0009695937025B92BB130E4939FC0011124E8
:1004F000922F9F73892B8BB91092EC011092EB0114
:100500001092EE011092ED018091C00085FFFCCFAA
:100510008091EA018093C6009F918F913F912F9126
:100520000F900FBE0F901F90189597FB072E16F493
:10053000009407D077FD09D00E94AF0207FC05D0D8
:100540003EF4909581959F4F0895709561957F4FEA
:100550000895EE0FFF1F0590F491E02D0994AA1B5A
:10056000BB1B51E107C0AA1FBB1FA617B70710F09E
:10057000A61BB70B881F991F5A95A9F780959095D0
:0A058000BC01CD010895F894FFCFEF
:10058A00303132333435363738390A0D4269656EBF
:10059A0076656E69646F2061206D6920706F736C77
:1005AA006162203A290A0D0053656C656363696FBD
:1005BA006E6120756E61206465206C617320646FC2
:1005CA0073206F7063696F6E6573206120636F6E4D
:1005DA0074696E75616369F36E3A0A0D00312E20F3
:1005EA004C65657220706F74656E63696F6D6574B2
:1005FA00726F0A0D00322E20456E766961722041B3
:10060A00534349490A0D000A0D2D2D2D2D2D2D2D4F
:10061A002D2D2D2D2D2D2D2D2D2D2D2D2D2D2D2D00
:10062A002D2D2D2D2D2D2D2D2D2D2D2D2D2D2D2DF0
:10063A002D2D2D0A0D00454C2056414C4F52204479
:10064A00454C20504F54454E4349D34D4554524F83
:10065A002045533A000A0D496E6772657365207525
:0A066A006E2076616C6F720A0D00BD
:00000001FF
